:0A089A000001020203030404050537
:1002A500E4F513F512F511F510C203C200C202C23E
:1002B5000112044F7E077F008E238F24752B07754F
:1002C5002C1275210775221C752907752A4A752D6B
:1002D50007752E78EE54E070030203E97514007576
:1002E50015808E168F17C374A29FFF74079ECF24A7
:1002F50002CF3400FEE48F0F8E0EF50DF50CF50BD5
:10030500F50AF509F508AF0FAE0EAD0DAC0CAB0B4C
:10031500AA0AA909A808C31208895026E515250BBC
:10032500F582E514350AF58374CDF0E50B2401F566
:100335000BE4350AF50AE43509F509E43508F5084D
:1003450080C4E4F50BF50AF509F508AF0FAE0EAD5F
:100355000DAC0CAB0BAA0AA909A808C31208895051
:1003650031AE0AAF0BE5172FF582E5163EF583E0B2
:10037500FDE5152FF582E5143EF583EDF0EF24013B
:10038500F50BE43EF50AE43509F509E43508F50809
:1003950080B985142385152474002480FF740734DF
:1003A500FFFEC3E52C9FF52CE52B9EF52BC3E5261B
:1003B5009FF526E5259EF525C3E5289FF528E52724
:1003C5009EF527C3E5229FF522E5219EF521C3E58C
:1003D5002A9FF52AE5299EF529C3E52E9FF52EE5E9
:1003E5002D9EF52DD2E843D82090E668E04409F02B
:1003F50090E65CE0443DF0D2AF90E680E020E10578
:10040500D2041206B890E680E054F7F0538EF8C295
:1004150003300105120080C2013003291205FD5089
:1004250024C2031207FC20001690E682E030E704A0
:10043500E020E1EF90E682E030E604E020E0E4121F
:0A04450007A41208B81205FF80C7D3
:1000800090E6B9E070030201311470030201AE245E
:10009000FE700302023224FB700302012B14700372
:1000A0000201251460731460762405600302029136
:1000B0001208BA400302029D90E6BBE024FE6022D3
:1000C00014603324FD601114602224067048E52377
:1000D00090E6B3F0E5248034E52B90E6B3F0E52C10
:1000E000802AE52590E6B3F0E5268020E52790E616
:1000F000B3F0E528801690E6BAE0FF1207D0AA0612
:10010000A907EA496010EE90E6B3F0EF90E6B4F08C
:1001100002029D02029602029612087702029D12C6
:1001200008AC02029D1208A402029D120865020298
:100130009D1208BC400302029D90E6B8E0247F6057
:100140001514601924027063A200E43325E0FFA2B5
:1001500002E4334F8041E490E740F0803F90E6BCFA
:10016000E0547EFF7E00E0D394807C0040047D015B
:1001700080027D00EC4EFEED4F249AF58274083E1D
:10018000F583E493FF3395E0FEEF24A1FFEE34E620
:100190008F82F583E0540190E740F0E4A3F090E60D
:1001A0008AF090E68B7402F002029D020296120819
:1001B000BE400302029D90E6B8E024FE60162402D1
:1001C000600302029D90E6BAE0B40105C20002029B
:1001D0009D02029690E6BAE0705690E6BCE0547E2E
:1001E000FF7E00E0D394807C0040047D0180027D8E
:1001F00000EC4EFEED4F249AF58274083EF583E440
:1002000093FF3395E0FEEF24A1FFEE34E68F82F5F5
:1002100083E054FEF090E6BCE05480FF13131354C7
:100220001FFFE0540F2F90E683F0E04420F0806D34
:1002300080641208C0506690E6B8E024FE6019247D
:1002400002705A90E6BAE0B40104D200804F90E602
:10025000BAE064026047803E90E6BCE0547EFF7ED8
:1002600000E0D394807C0040047D0180027D00EC9E
:100270004EFEED4F249AF58274083EF583E493FF19
:100280003395E0FEEF24A1FFEE34E68F82F5838004
:10029000081208C2500790E6A0E04401F090E6A0E2
:0402A000E04480F0C6
:0102A4002237
:030033000208B40C
:0408B40053D8EF32F4
:10044F0090E60B7403F000000090E600E054E744E0
:10045F0010F090E601E044E3F000000090E6047431
:10046F0080F00000007402F00000007404F000003F
:10047F00007406F00000007408F0000000E4F000C3
:10048F00000090E618744DF000000090E61274E240
:10049F00F000000090E61374A0F000000090E61446
:1004AF0074E2F000000090E61574E0F0000000E444
:1004BF0090E602F000000090E603F000000090E6E6
:1004CF0070F090E609F000000090E6207402F00052
:1004DF000000E490E621F000000090E6307482F016
:1004EF00000000E490E631F000000090E695748083
:1004FF00F0000000F0000000E4FFFE74002FF58212
:10050F0074F03EF583E4F00000000FBF00010EE42D
:10051F00B507E8EEB404E400000090E6907402F032
:0D052F00000000E490E691F043AF01D2001F
:01053C00229C
:0105FF0022D9
:0205FD00D32207
:0208B800D32249
:0208BA00D32247
:0808A40090E6BAE0F51BD32237
:1008650090E740E51BF0E490E68AF090E68B04F013
:02087500D3228C
:0808AC0090E6BAE0F51AD32230
:1008770090E740E51AF0E490E68AF090E68B04F002
:02088700D3227A
:0208BC00D32245
:0208BE00D32243
:0208C000D32241
:0208C200D3223F
:1006E700C0E0C083C082D2015391EF90E65D7401F0
:0806F700F0D082D083D0E03284
:10083900C0E0C083C0825391EF90E65D7404F0D0AC
:0608490082D083D0E032F2
:10084F00C0E0C083C0825391EF90E65D7402F0D098
:06085F0082D083D0E032DC
:10058300C0E0C083C08290E680E030E70E8521257D
:10059300852226852927852A28800C852925852AD1
:1005A300268521278522285391EF90E65D7410F06C
:0705B300D082D083D0E032BA
:10082100C0E0C083C082D2035391EF90E65D7408AB
:08083100F0D082D083D0E03248
:1005BA00C0E0C083C08290E680E030E70E85212546
:1005CA00852226852927852A28800C852925852A9A
:1005DA00268521278522285391EF90E65D7420F025
:0705EA00D082D083D0E03283
:0106FF0032C8
:0108C4003201
:0108C5003200
:0108C60032FF
:0108C70032FE
:0108C80032FD
:0108C90032FC
:0108CA0032FB
:0108CB0032FA
:0108CC0032F9
:0108CD0032F8
:0108CE0032F7
:0108CF0032F6
:0108D00032F5
:0108D10032F4
:0108D20032F3
:0108D30032F2
:0108D40032F1
:0108D50032F0
:0108D60032EF
:0108D70032EE
:0108D80032ED
:0108D90032EC
:0108DA0032EB
:0108DB0032EA
:0108DC0032E9
:0108DD0032E8
:0108DE0032E7
:0108DF0032E6
:0108E00032E5
:0108E10032E4
:0108E20032E3
:0108E30032E2
:0108E40032E1
:0108E50032E0
:0108E60032DF
:100700001201000200000040470502100000010233
:1007100000010A06000200000040010009022E004C
:10072000010100A0320904000004FF0000000705D9
:10073000820200020007050402000200070586028B
:100740000002000705880200020009022E000101D4
:1007500000A0320904000004FF0000000705820227
:100760004000000705040240000007058602400023
:100770000007058802400000040309041003430039
:100780007900700072006500730073001603450065
:100790005A002D005500530042002000460058002A
:0407A0003200000023
:1007A40090E682E030E004E020E60B90E682E03060
:1007B400E119E030E71590E680E04401F07F147E13
:0C07C4000012053D90E680E054FEF0229B
:1007FC0090E682E044C0F090E681F043870100006F
:04080C0000000022C6
:1006B80030040990E680E0440AF0800790E680E084
:1006C8004408F07FDC7E0512053D90E65D74FFF07E
:0F06D80090E65FF05391EF90E680E054F7F02248
:0207D000A90777
:1007D200AE2DAF2E8F828E83A3E064037017AD011E
:1007E20019ED7001228F828E83E07C002FFDEC3E9A
:0907F200FEAF0580DF7E007F00F0
:0107FB0022DB
:10053D008E188F1990E600E054187012E5192401F9
:10054D00FFE43518C313F518EF13F519801590E670
:10055D0000E05418FFBF100BE51925E0F519E5185B
:10056D0033F518E5191519AE18700215184E6005FA
:06057D0012081080EE22BE
:100810007400F58690FDA57C05A3E582458370F9FB
:0108200022B5
:03004300020600B2
:03005300020600A2
:100600000206E70002084F00020839000208210034
:10061000020583000205BA000206FF000208C400BA
:100620000208C5000208C6000208C7000208C80088
:100630000208C9000208CA000208CB000208CC0068
:100640000208CD000208C4000208CE000208CF0054
:100650000208D0000208D1000208D2000208D3002C
:100660000208D4000208C4000208C4000208C40042
:100670000208D5000208D6000208D7000208D800F8
:100680000208D9000208DA000208DB000208DC00D8
:100690000208DD000208DE000208DF000208E000B8
:1006A0000208E1000208E2000208E3000208E40098
:0806B0000208E5000208E60063
:030000000205F105
:0C05F100787FE4F6D8FD75812E0202A58B
:10088900EB9FF5F0EA9E42F0E99D42F0E89C45F0C5
:01089900223C
:00000001FF
